{
  "contractName": "SimpleStorage",
  "abi": [
    {
      "constant": false,
      "inputs": [
        {
          "internalType": "uint256",
          "name": "x",
          "type": "uint256"
        }
      ],
      "name": "set",
      "outputs": [],
      "payable": false,
      "stateMutability": "nonpayable",
      "type": "function"
    },
    {
      "constant": true,
      "inputs": [],
      "name": "get",
      "outputs": [
        {
          "internalType": "uint256",
          "name": "",
          "type": "uint256"
        }
      ],
      "payable": false,
      "stateMutability": "view",
      "type": "function"
    },
    {
      "constant": false,
      "inputs": [
        {
          "internalType": "uint256",
          "name": "x",
          "type": "uint256"
        }
      ],
      "name": "storedMultiplier",
      "outputs": [],
      "payable": false,
      "stateMutability": "nonpayable",
      "type": "function"
    },
    {
      "constant": true,
      "inputs": [],
      "name": "getValue",
      "outputs": [
        {
          "internalType": "uint256",
          "name": "",
          "type": "uint256"
        }
      ],
      "payable": false,
      "stateMutability": "view",
      "type": "function"
    }
  ],
  "bytecode": "0x608060405234801561001057600080fd5b50610149806100206000396000f3fe608060405234801561001057600080fd5b506004361061004c5760003560e01c8063209652551461005157806360fe47b11461006f5780636d4ce63c1461009d578063aa9813c2146100bb575b600080fd5b6100596100e9565b6040518082815260200191505060405180910390f35b61009b6004803603602081101561008557600080fd5b81019080803590602001909291905050506100f3565b005b6100a56100fd565b6040518082815260200191505060405180910390f35b6100e7600480360360208110156100d157600080fd5b8101908080359060200190929190505050610106565b005b6000600154905090565b8060008190555050565b60008054905090565b80600054026001819055505056fea265627a7a72315820204d985cb47b63bba99cdf0a3d1f18cd89afbe13ff2fcc3d869414b3252cecca64736f6c63430005100032",
  "source": "// SPDX-License-Identifier: MIT\npragma solidity >=0.4.21 <8.10.0;\n\ncontract SimpleStorage {\n  uint storedData;\n  uint storedMultiply2;\n\n  function set(uint x) public {\n    storedData = x;\n  }\n\n  function get() public view returns (uint) {\n    return storedData;\n  }\n\n  function storedMultiplier(uint x) public {\n    storedMultiply2 = storedData*x;\n  }\n\n  function getValue() public view returns (uint) {\n    return storedMultiply2;\n  }\n  \n}\n",
  "sourcePath": "C:\\Users\\prati\\OneDrive\\Desktop\\BLOCKCHAIN TECHNOLOGY\\Truffle\\Dapps\\contracts\\SimpleStorage.sol",
  "compiler": {
    "name": "solc",
    "version": "0.5.16+commit.9c3226ce.Emscripten.clang"
  },
  "schemaVersion": "3.4.4",
  "updatedAt": "2022-04-07T07:47:09.348Z",
  "networkType": "ethereum",
  "devdoc": {
    "methods": {}
  },
  "userdoc": {
    "methods": {}
  }
}